:020000020000FC
:1000000035C018951895189524C018951895189509
:100010001895189518951895189518951895189578
:1000200009C018951895189518951895189518954C
:100030001895189567D00F933150204039F41095DA
:100040001BB9002700932600242F32E10F9176D0B0
:1000500018956DD057D00F937ED006B103FF02C024
:1000600000E2400F6BD057D00F9118950FEF0DBFE6
:1000700002E00EBF0CD04FD061D00FEF0AB980E084
:1000800087B98FE788B91FEF1BB94AE7FFCF80E038
:10009000082E80E0182E80E0282E80E0382E80E0A8
:1000A000482E80E0582E80E0682E80E0782E80E098
:1000B000882E80E0982E80E0A82E80E0B82E80E088
:1000C000C82E80E0D82E80E0E82E80E0F82E00E0F8
:1000D00010E020E030E040E050E060E070E080E0E0
:1000E00090E0A0E0B0E0C0E0D0E0E0E0F0E0E0E0F0
:1000F000F1E000270193F230E9F7EE3FD9F7EE2760
:10010000FF270895F8940F9300E000936800009390
:100110006C000F9108950F9301E000936E0000278B
:1001200006BD01E005BD32E1242F0F9108950F9324
:10013000002706BD00E005BD0F9108950F9302E072
:10014000009368000FEF00936C00002700931B00E2
:100150000F91789408951F932F933F9313E12FEFFE
:100160003FEF315020401040E0F73F912F911F9119
:0401700088940895D2
:00000001FF
