:1000000019C033C032C031C030C02FC02EC02DC087
:100010002CC02BC02AC029C028C027C026C025C09C
:1000200024C023C022C021C020C01FC01EC01DC0CC
:100030001CC01BC011241FBECFEFD2E0DEBFCDBF5E
:1000400011E0A0E0B1E0ECE8F0E002C005900D9214
:10005000A030B107D9F711E0A0E0B1E001C01D92D6
:10006000A030B107E1F702D00FC0CACF579A8BB1C9
:1000700080588BB98FEF90E7A2E081509040A0406C
:0C008000E1F700C00000F3CFF894FFCFC0
:00000001FF
