:020000020000FC
:100000004FC0189518951895189518951895189526
:1000100018951895189521C0189518951895189544
:1000200009C018951895189518951895189518954C
:100030001895189500E00BB9459B08C0110F109555
:1000400018B910950E9168D00BB9189511E010955C
:1000500018B91095A6E0B1E0F5CFBF93AF93B1E02A
:10006000A6E029E04ED0303091F025E04AD0303083
:1000700071F029E046D0303051F025E042D03030E8
:1000800031F023E03ED0303011F022E03AD00027AA
:1000900000938500009384003327AF91BF9118959A
:1000A0000FEF0DBF02E00EBFEFEFF0E0002701936E
:1000B000F330E9F7E030D9F7EEE1FF27EA95F08376
:1000C000E9F700E00093000100E0009301010FEF69
:1000D00007B90AB910E2109518B9109501E000931C
:1000E0006E0003E005BD02E000936F0004E00093A2
:1000F000810009E70093890005E90093880078945E
:10010000FFCF0E91021721F400E031E00C93089527
:1001100003950C9330E00895FF93EF930F92F1E075
:10012000E4E3E00F0027F01FC895002D0F90EF913A
:0E013000FF9108953F065B4F666D7D077F6F60
:00000001FF
