:020000020000FC
:100000004BC018951895189518951895189518952A
:100010001895189518951DC0189518951895189548
:1000200009C018951895189518951895189518954C
:10003000189518950FEF0BB9459906C0110F18B90F
:100040000E9171D00BB9189511E018B9A6E0B1E086
:10005000F7CFBF93AF93B1E0A6E029E059D030309D
:1000600091F025E055D0303071F029E051D030309A
:1000700051F025E04DD0303031F03DD049D0303016
:1000800011F022E045D00027009385000093840002
:100090003327AF91BF9118950FEF0DBF02E00EBF50
:1000A000EFEFF0E000270193F330E9F7E030D9F704
:1000B000EEE1FF27EA95F083E9F700E00093000105
:1000C00000E0009301010FEF07B90AB910E218B977
:1000D00001E000936E0003E005BD02E000936F00B5
:1000E00004E00093810009E70093890005E900938B
:1000F00088007894FFCFA250B0400C91023031F0CC
:1001000029E002E0A00F0027B01F089523E0F9CFF7
:100110000E91021721F400E031E00C93089503954D
:100120000C9330E00895FF93EF930F92F1E0E2E437
:10013000E00F0027F01FC895002D0F90EF91FF9161
:0C0140000895C0F9A4B0999282F8809054
:00000001FF
